{
  "abi": [
    {
      "inputs": [
        {
          "internalType": "address",
          "name": "_goldfinchPool",
          "type": "address"
        },
        {
          "internalType": "address",
          "name": "_stablecoin",
          "type": "address"
        }
      ],
      "stateMutability": "nonpayable",
      "type": "constructor"
    },
    {
      "anonymous": false,
      "inputs": [
        {
          "indexed": true,
          "internalType": "address",
          "name": "owner",
          "type": "address"
        },
        {
          "indexed": true,
          "internalType": "address",
          "name": "spender",
          "type": "address"
        },
        {
          "indexed": false,
          "internalType": "uint256",
          "name": "value",
          "type": "uint256"
        }
      ],
      "name": "Approval",
      "type": "event"
    },
    {
      "anonymous": false,
      "inputs": [
        {
          "indexed": true,
          "internalType": "address",
          "name": "previousOwner",
          "type": "address"
        },
        {
          "indexed": true,
          "internalType": "address",
          "name": "newOwner",
          "type": "address"
        }
      ],
      "name": "OwnershipTransferred",
      "type": "event"
    },
    {
      "anonymous": false,
      "inputs": [
        {
          "indexed": true,
          "internalType": "address",
          "name": "from",
          "type": "address"
        },
        {
          "indexed": true,
          "internalType": "address",
          "name": "to",
          "type": "address"
        },
        {
          "indexed": false,
          "internalType": "uint256",
          "name": "value",
          "type": "uint256"
        }
      ],
      "name": "Transfer",
      "type": "event"
    },
    {
      "inputs": [
        {
          "internalType": "address",
          "name": "owner",
          "type": "address"
        },
        {
          "internalType": "address",
          "name": "spender",
          "type": "address"
        }
      ],
      "name": "allowance",
      "outputs": [
        {
          "internalType": "uint256",
          "name": "",
          "type": "uint256"
        }
      ],
      "stateMutability": "view",
      "type": "function"
    },
    {
      "inputs": [
        {
          "internalType": "address",
          "name": "spender",
          "type": "address"
        },
        {
          "internalType": "uint256",
          "name": "amount",
          "type": "uint256"
        }
      ],
      "name": "approve",
      "outputs": [
        {
          "internalType": "bool",
          "name": "",
          "type": "bool"
        }
      ],
      "stateMutability": "nonpayable",
      "type": "function"
    },
    {
      "inputs": [
        {
          "internalType": "address",
          "name": "account",
          "type": "address"
        }
      ],
      "name": "balanceOf",
      "outputs": [
        {
          "internalType": "uint256",
          "name": "",
          "type": "uint256"
        }
      ],
      "stateMutability": "view",
      "type": "function"
    },
    {
      "inputs": [
        {
          "internalType": "uint256",
          "name": "amount",
          "type": "uint256"
        },
        {
          "internalType": "uint256",
          "name": "orderID",
          "type": "uint256"
        }
      ],
      "name": "buyTokens",
      "outputs": [],
      "stateMutability": "nonpayable",
      "type": "function"
    },
    {
      "inputs": [],
      "name": "claimRewardsOnGoldfinch",
      "outputs": [],
      "stateMutability": "nonpayable",
      "type": "function"
    },
    {
      "inputs": [],
      "name": "decimals",
      "outputs": [
        {
          "internalType": "uint8",
          "name": "",
          "type": "uint8"
        }
      ],
      "stateMutability": "view",
      "type": "function"
    },
    {
      "inputs": [
        {
          "internalType": "address",
          "name": "spender",
          "type": "address"
        },
        {
          "internalType": "uint256",
          "name": "subtractedValue",
          "type": "uint256"
        }
      ],
      "name": "decreaseAllowance",
      "outputs": [
        {
          "internalType": "bool",
          "name": "",
          "type": "bool"
        }
      ],
      "stateMutability": "nonpayable",
      "type": "function"
    },
    {
      "inputs": [
        {
          "internalType": "uint256",
          "name": "tokenId",
          "type": "uint256"
        }
      ],
      "name": "depositERC721",
      "outputs": [],
      "stateMutability": "nonpayable",
      "type": "function"
    },
    {
      "inputs": [
        {
          "internalType": "address",
          "name": "spender",
          "type": "address"
        },
        {
          "internalType": "uint256",
          "name": "addedValue",
          "type": "uint256"
        }
      ],
      "name": "increaseAllowance",
      "outputs": [
        {
          "internalType": "bool",
          "name": "",
          "type": "bool"
        }
      ],
      "stateMutability": "nonpayable",
      "type": "function"
    },
    {
      "inputs": [],
      "name": "name",
      "outputs": [
        {
          "internalType": "string",
          "name": "",
          "type": "string"
        }
      ],
      "stateMutability": "view",
      "type": "function"
    },
    {
      "inputs": [
        {
          "internalType": "address",
          "name": "operator",
          "type": "address"
        },
        {
          "internalType": "address",
          "name": "from",
          "type": "address"
        },
        {
          "internalType": "uint256",
          "name": "tokenId",
          "type": "uint256"
        },
        {
          "internalType": "bytes",
          "name": "data",
          "type": "bytes"
        }
      ],
      "name": "onERC721Received",
      "outputs": [
        {
          "internalType": "bytes4",
          "name": "",
          "type": "bytes4"
        }
      ],
      "stateMutability": "nonpayable",
      "type": "function"
    },
    {
      "inputs": [],
      "name": "owner",
      "outputs": [
        {
          "internalType": "address",
          "name": "",
          "type": "address"
        }
      ],
      "stateMutability": "view",
      "type": "function"
    },
    {
      "inputs": [
        {
          "internalType": "uint256",
          "name": "",
          "type": "uint256"
        }
      ],
      "name": "ownerOfSellOrder",
      "outputs": [
        {
          "internalType": "address",
          "name": "",
          "type": "address"
        }
      ],
      "stateMutability": "view",
      "type": "function"
    },
    {
      "inputs": [],
      "name": "renounceOwnership",
      "outputs": [],
      "stateMutability": "nonpayable",
      "type": "function"
    },
    {
      "inputs": [
        {
          "internalType": "uint256",
          "name": "",
          "type": "uint256"
        }
      ],
      "name": "sellOrders",
      "outputs": [
        {
          "internalType": "address",
          "name": "seller",
          "type": "address"
        },
        {
          "internalType": "uint256",
          "name": "price",
          "type": "uint256"
        },
        {
          "internalType": "uint256",
          "name": "amount",
          "type": "uint256"
        }
      ],
      "stateMutability": "view",
      "type": "function"
    },
    {
      "inputs": [
        {
          "internalType": "uint256",
          "name": "amount",
          "type": "uint256"
        },
        {
          "internalType": "uint256",
          "name": "price",
          "type": "uint256"
        }
      ],
      "name": "sellTokens",
      "outputs": [],
      "stateMutability": "nonpayable",
      "type": "function"
    },
    {
      "inputs": [
        {
          "internalType": "address",
          "name": "_stakingContract",
          "type": "address"
        }
      ],
      "name": "setStakingContract",
      "outputs": [],
      "stateMutability": "nonpayable",
      "type": "function"
    },
    {
      "inputs": [],
      "name": "symbol",
      "outputs": [
        {
          "internalType": "string",
          "name": "",
          "type": "string"
        }
      ],
      "stateMutability": "view",
      "type": "function"
    },
    {
      "inputs": [],
      "name": "totalSupply",
      "outputs": [
        {
          "internalType": "uint256",
          "name": "",
          "type": "uint256"
        }
      ],
      "stateMutability": "view",
      "type": "function"
    },
    {
      "inputs": [
        {
          "internalType": "address",
          "name": "to",
          "type": "address"
        },
        {
          "internalType": "uint256",
          "name": "amount",
          "type": "uint256"
        }
      ],
      "name": "transfer",
      "outputs": [
        {
          "internalType": "bool",
          "name": "",
          "type": "bool"
        }
      ],
      "stateMutability": "nonpayable",
      "type": "function"
    },
    {
      "inputs": [
        {
          "internalType": "address",
          "name": "from",
          "type": "address"
        },
        {
          "internalType": "address",
          "name": "to",
          "type": "address"
        },
        {
          "internalType": "uint256",
          "name": "amount",
          "type": "uint256"
        }
      ],
      "name": "transferFrom",
      "outputs": [
        {
          "internalType": "bool",
          "name": "",
          "type": "bool"
        }
      ],
      "stateMutability": "nonpayable",
      "type": "function"
    },
    {
      "inputs": [
        {
          "internalType": "address",
          "name": "newOwner",
          "type": "address"
        }
      ],
      "name": "transferOwnership",
      "outputs": [],
      "stateMutability": "nonpayable",
      "type": "function"
    }
  ],
  "bytecode": {
    "object": "0x60806040523480156200001157600080fd5b506040516200189f3803806200189f833981016040819052620000349162000154565b604051806040016040528060098152602001684c697175694465466960b81b815250604051806040016040528060038152602001622628a360e91b815250816003908162000083919062000231565b50600462000092828262000231565b505050620000af620000a9620000e160201b60201c565b620000e5565b600780546001600160a01b039384166001600160a01b03199182161790915560098054929093169116179055620002fd565b3390565b600580546001600160a01b038381166001600160a01b0319831681179093556040519116919082907f8be0079c531659141344cd1fd0a4f28419497f9722a3daafe3b4186f6b6457e090600090a35050565b80516001600160a01b03811681146200014f57600080fd5b919050565b600080604083850312156200016857600080fd5b620001738362000137565b9150620001836020840162000137565b90509250929050565b634e487b7160e01b600052604160045260246000fd5b600181811c90821680620001b757607f821691505b602082108103620001d857634e487b7160e01b600052602260045260246000fd5b50919050565b601f8211156200022c57600081815260208120601f850160051c81016020861015620002075750805b601f850160051c820191505b81811015620002285782815560010162000213565b5050505b505050565b81516001600160401b038111156200024d576200024d6200018c565b62000265816200025e8454620001a2565b84620001de565b602080601f8311600181146200029d5760008415620002845750858301515b600019600386901b1c1916600185901b17855562000228565b600085815260208120601f198616915b82811015620002ce57888601518255948401946001909101908401620002ad565b5085821015620002ed5787850151600019600388901b60f8161c191681555b5050505050600190811b01905550565b611592806200030d6000396000f3fe608060405234801561001057600080fd5b50600436106101425760003560e01c80637975ce28116100b8578063a9059cbb1161007c578063a9059cbb1461032b578063ba4da4871461033e578063d8a63f5914610346578063dd62ed3e14610359578063ed9772b61461036c578063f2fde38b1461037f57600080fd5b80637975ce28146102d95780638da5cb5b146102ec57806395d89b41146102fd5780639dd373b914610305578063a457c2d71461031857600080fd5b8063313ce5671161010a578063313ce567146101e557806339509351146101f45780634a8393f31461020757806370a0823114610265578063715018a61461028e578063786d79d71461029857600080fd5b806306fdde0314610147578063095ea7b314610165578063150b7a021461018857806318160ddd146101c057806323b872dd146101d2575b600080fd5b61014f610392565b60405161015c91906111f8565b60405180910390f35b610178610173366004611247565b610424565b604051901515815260200161015c565b6101a7610196366004611271565b630a85bd0160e11b95945050505050565b6040516001600160e01b0319909116815260200161015c565b6002545b60405190815260200161015c565b6101786101e036600461130c565b61043e565b6040516012815260200161015c565b610178610202366004611247565b610462565b610240610215366004611348565b600a602052600090815260409020805460018201546002909201546001600160a01b03909116919083565b604080516001600160a01b03909416845260208401929092529082015260600161015c565b6101c4610273366004611361565b6001600160a01b031660009081526020819052604090205490565b610296610484565b005b6102c16102a6366004611348565b600b602052600090815260409020546001600160a01b031681565b6040516001600160a01b03909116815260200161015c565b6102966102e7366004611383565b610498565b6005546001600160a01b03166102c1565b61014f61058b565b610296610313366004611361565b61059a565b610178610326366004611247565b6105c4565b610178610339366004611247565b61063f565b61029661064d565b610296610354366004611348565b61081b565b6101c46103673660046113a5565b610914565b61029661037a366004611383565b61093f565b61029661038d366004611361565b6109b1565b6060600380546103a1906113d8565b80601f01602080910402602001604051908101604052809291908181526020018280546103cd906113d8565b801561041a5780601f106103ef5761010080835404028352916020019161041a565b820191906000526020600020905b8154815290600101906020018083116103fd57829003601f168201915b5050505050905090565b600033610432818585610a2a565b60019150505b92915050565b60003361044c858285610b4e565b610457858585610bc8565b506001949350505050565b6000336104328185856104758383610914565b61047f9190611428565b610a2a565b61048c610d6c565b6104966000610dc6565b565b6000818152600a602052604090206002015482106104fd5760405162461bcd60e51b815260206004820152601d60248201527f6e6f7420656e6f75676820746f6b656e73206c65667420746f2062757900000060448201526064015b60405180910390fd5b6000818152600a60205260408120600201805484929061051e90849061143b565b9091555061052f9050303384610e18565b610587336000838152600a6020526040902080546001909101546001600160a01b0390911690670de0b6b3a764000090610569908761144e565b610573919061146d565b6009546001600160a01b0316929190610e7b565b5050565b6060600480546103a1906113d8565b6105a2610d6c565b600680546001600160a01b0319166001600160a01b0392909216919091179055565b600033816105d28286610914565b9050838110156106325760405162461bcd60e51b815260206004820152602560248201527f45524332303a2064656372656173656420616c6c6f77616e63652062656c6f77604482015264207a65726f60d81b60648201526084016104f4565b6104578286868403610a2a565b600033610432818585610bc8565b6009546040516370a0823160e01b81523060048201526000916001600160a01b0316906370a0823190602401602060405180830381865afa158015610696573d6000803e3d6000fd5b505050506040513d601f19601f820116820180604052508101906106ba919061148f565b9050600760009054906101000a90046001600160a01b03166001600160a01b031663372500ab6040518163ffffffff1660e01b8152600401600060405180830381600087803b15801561070c57600080fd5b505af1158015610720573d6000803e3d6000fd5b50506009546040516370a0823160e01b8152306004820152600093506001600160a01b0390911691506370a0823190602401602060405180830381865afa15801561076f573d6000803e3d6000fd5b505050506040513d601f19601f82011682018060405250810190610793919061148f565b6006546009549192506001600160a01b039081169163b66503cf91166107b9858561143b565b6040516001600160e01b031960e085901b1681526001600160a01b0390921660048301526024820152604401600060405180830381600087803b1580156107ff57600080fd5b505af1158015610813573d6000803e3d6000fd5b505050505050565b6007546040516374acd20960e01b8152600481018390526000916001600160a01b0316906374acd209906024016040805180830381865afa158015610864573d6000803e3d6000fd5b505050506040513d601f19601f8201168201806040525081019061088891906114a8565b516007549091506001600160a01b03166342842e0e336040516001600160e01b031960e084901b1681526001600160a01b03909116600482015230602482015260448101859052606401600060405180830381600087803b1580156108ec57600080fd5b505af1158015610900573d6000803e3d6000fd5b5050505061058761090e3390565b82610eb3565b6001600160a01b03918216600090815260016020908152604080832093909416825291909152205490565b6008805490600061094f83611505565b9091555050600880546000908152600a602090815260408083208054336001600160a01b031991821681178355600183018890556002830189905595548552600b9093529220805490911683179055906109ac9030908186610e7b565b505050565b6109b9610d6c565b6001600160a01b038116610a1e5760405162461bcd60e51b815260206004820152602660248201527f4f776e61626c653a206e6577206f776e657220697320746865207a65726f206160448201526564647265737360d01b60648201526084016104f4565b610a2781610dc6565b50565b6001600160a01b038316610a8c5760405162461bcd60e51b8152602060048201526024808201527f45524332303a20617070726f76652066726f6d20746865207a65726f206164646044820152637265737360e01b60648201526084016104f4565b6001600160a01b038216610aed5760405162461bcd60e51b815260206004820152602260248201527f45524332303a20617070726f766520746f20746865207a65726f206164647265604482015261737360f01b60648201526084016104f4565b6001600160a01b0383811660008181526001602090815260408083209487168084529482529182902085905590518481527f8c5be1e5ebec7d5bd14f71427d1e84f3dd0314c0f7b2291e5b200ac8c7c3b925910160405180910390a3505050565b6000610b5a8484610914565b90506000198114610bc25781811015610bb55760405162461bcd60e51b815260206004820152601d60248201527f45524332303a20696e73756666696369656e7420616c6c6f77616e636500000060448201526064016104f4565b610bc28484848403610a2a565b50505050565b6001600160a01b038316610c2c5760405162461bcd60e51b815260206004820152602560248201527f45524332303a207472616e736665722066726f6d20746865207a65726f206164604482015264647265737360d81b60648201526084016104f4565b6001600160a01b038216610c8e5760405162461bcd60e51b815260206004820152602360248201527f45524332303a207472616e7366657220746f20746865207a65726f206164647260448201526265737360e81b60648201526084016104f4565b6001600160a01b03831660009081526020819052604090205481811015610d065760405162461bcd60e51b815260206004820152602660248201527f45524332303a207472616e7366657220616d6f756e7420657863656564732062604482015265616c616e636560d01b60648201526084016104f4565b6001600160a01b03848116600081815260208181526040808320878703905593871680835291849020805487019055925185815290927fddf252ad1be2c89b69c2b068fc378daa952ba7f163c4a11628f55a4df523b3ef910160405180910390a3610bc2565b6005546001600160a01b031633146104965760405162461bcd60e51b815260206004820181905260248201527f4f776e61626c653a2063616c6c6572206973206e6f7420746865206f776e657260448201526064016104f4565b600580546001600160a01b038381166001600160a01b0319831681179093556040519116919082907f8be0079c531659141344cd1fd0a4f28419497f9722a3daafe3b4186f6b6457e090600090a35050565b6040516001600160a01b0383166024820152604481018290526109ac90849063a9059cbb60e01b906064015b60408051601f198184030181529190526020810180516001600160e01b03166001600160e01b031990931692909217909152610f72565b6040516001600160a01b0380851660248301528316604482015260648101829052610bc29085906323b872dd60e01b90608401610e44565b6001600160a01b038216610f095760405162461bcd60e51b815260206004820152601f60248201527f45524332303a206d696e7420746f20746865207a65726f20616464726573730060448201526064016104f4565b8060026000828254610f1b9190611428565b90915550506001600160a01b038216600081815260208181526040808320805486019055518481527fddf252ad1be2c89b69c2b068fc378daa952ba7f163c4a11628f55a4df523b3ef910160405180910390a35050565b6000610fc7826040518060400160405280602081526020017f5361666545524332303a206c6f772d6c6576656c2063616c6c206661696c6564815250856001600160a01b03166110449092919063ffffffff16565b8051909150156109ac5780806020019051810190610fe5919061151e565b6109ac5760405162461bcd60e51b815260206004820152602a60248201527f5361666545524332303a204552433230206f7065726174696f6e20646964206e6044820152691bdd081cdd58d8d9595960b21b60648201526084016104f4565b6060611053848460008561105b565b949350505050565b6060824710156110bc5760405162461bcd60e51b815260206004820152602660248201527f416464726573733a20696e73756666696369656e742062616c616e636520666f6044820152651c8818d85b1b60d21b60648201526084016104f4565b600080866001600160a01b031685876040516110d89190611540565b60006040518083038185875af1925050503d8060008114611115576040519150601f19603f3d011682016040523d82523d6000602084013e61111a565b606091505b509150915061112b87838387611136565b979650505050505050565b606083156111a557825160000361119e576001600160a01b0385163b61119e5760405162461bcd60e51b815260206004820152601d60248201527f416464726573733a2063616c6c20746f206e6f6e2d636f6e747261637400000060448201526064016104f4565b5081611053565b61105383838151156111ba5781518083602001fd5b8060405162461bcd60e51b81526004016104f491906111f8565b60005b838110156111ef5781810151838201526020016111d7565b50506000910152565b60208152600082518060208401526112178160408501602087016111d4565b601f01601f19169190910160400192915050565b80356001600160a01b038116811461124257600080fd5b919050565b6000806040838503121561125a57600080fd5b6112638361122b565b946020939093013593505050565b60008060008060006080868803121561128957600080fd5b6112928661122b565b94506112a06020870161122b565b935060408601359250606086013567ffffffffffffffff808211156112c457600080fd5b818801915088601f8301126112d857600080fd5b8135818111156112e757600080fd5b8960208285010111156112f957600080fd5b9699959850939650602001949392505050565b60008060006060848603121561132157600080fd5b61132a8461122b565b92506113386020850161122b565b9150604084013590509250925092565b60006020828403121561135a57600080fd5b5035919050565b60006020828403121561137357600080fd5b61137c8261122b565b9392505050565b6000806040838503121561139657600080fd5b50508035926020909101359150565b600080604083850312156113b857600080fd5b6113c18361122b565b91506113cf6020840161122b565b90509250929050565b600181811c908216806113ec57607f821691505b60208210810361140c57634e487b7160e01b600052602260045260246000fd5b50919050565b634e487b7160e01b600052601160045260246000fd5b8082018082111561043857610438611412565b8181038181111561043857610438611412565b600081600019048311821515161561146857611468611412565b500290565b60008261148a57634e487b7160e01b600052601260045260246000fd5b500490565b6000602082840312156114a157600080fd5b5051919050565b6000604082840312156114ba57600080fd5b6040516040810181811067ffffffffffffffff821117156114eb57634e487b7160e01b600052604160045260246000fd5b604052825181526020928301519281019290925250919050565b60006001820161151757611517611412565b5060010190565b60006020828403121561153057600080fd5b8151801515811461137c57600080fd5b600082516115528184602087016111d4565b919091019291505056fea2646970667358221220a952af45dbf0c78818ce4bfc29b7c033cea4b40ba98c09b504acea1e6164500a64736f6c63430008100033",
    "linkReferences": {}
  },
  "methodIdentifiers": {
    "allowance(address,address)": "dd62ed3e",
    "approve(address,uint256)": "095ea7b3",
    "balanceOf(address)": "70a08231",
    "buyTokens(uint256,uint256)": "7975ce28",
    "claimRewardsOnGoldfinch()": "ba4da487",
    "decimals()": "313ce567",
    "decreaseAllowance(address,uint256)": "a457c2d7",
    "depositERC721(uint256)": "d8a63f59",
    "increaseAllowance(address,uint256)": "39509351",
    "name()": "06fdde03",
    "onERC721Received(address,address,uint256,bytes)": "150b7a02",
    "owner()": "8da5cb5b",
    "ownerOfSellOrder(uint256)": "786d79d7",
    "renounceOwnership()": "715018a6",
    "sellOrders(uint256)": "4a8393f3",
    "sellTokens(uint256,uint256)": "ed9772b6",
    "setStakingContract(address)": "9dd373b9",
    "symbol()": "95d89b41",
    "totalSupply()": "18160ddd",
    "transfer(address,uint256)": "a9059cbb",
    "transferFrom(address,address,uint256)": "23b872dd",
    "transferOwnership(address)": "f2fde38b"
  },
  "id": 2
}