{
  "abi": [
    {
      "inputs": [
        {
          "internalType": "address",
          "name": "_goldfinchPool",
          "type": "address"
        },
        {
          "internalType": "address",
          "name": "_stablecoin",
          "type": "address"
        },
        {
          "internalType": "address",
          "name": "_rewards",
          "type": "address"
        }
      ],
      "stateMutability": "nonpayable",
      "type": "constructor"
    },
    {
      "anonymous": false,
      "inputs": [
        {
          "indexed": true,
          "internalType": "address",
          "name": "owner",
          "type": "address"
        },
        {
          "indexed": true,
          "internalType": "address",
          "name": "spender",
          "type": "address"
        },
        {
          "indexed": false,
          "internalType": "uint256",
          "name": "value",
          "type": "uint256"
        }
      ],
      "name": "Approval",
      "type": "event"
    },
    {
      "anonymous": false,
      "inputs": [
        {
          "indexed": true,
          "internalType": "address",
          "name": "previousOwner",
          "type": "address"
        },
        {
          "indexed": true,
          "internalType": "address",
          "name": "newOwner",
          "type": "address"
        }
      ],
      "name": "OwnershipTransferred",
      "type": "event"
    },
    {
      "anonymous": false,
      "inputs": [
        {
          "indexed": true,
          "internalType": "address",
          "name": "from",
          "type": "address"
        },
        {
          "indexed": true,
          "internalType": "address",
          "name": "to",
          "type": "address"
        },
        {
          "indexed": false,
          "internalType": "uint256",
          "name": "value",
          "type": "uint256"
        }
      ],
      "name": "Transfer",
      "type": "event"
    },
    {
      "inputs": [
        {
          "internalType": "address",
          "name": "owner",
          "type": "address"
        },
        {
          "internalType": "address",
          "name": "spender",
          "type": "address"
        }
      ],
      "name": "allowance",
      "outputs": [
        {
          "internalType": "uint256",
          "name": "",
          "type": "uint256"
        }
      ],
      "stateMutability": "view",
      "type": "function"
    },
    {
      "inputs": [
        {
          "internalType": "address",
          "name": "spender",
          "type": "address"
        },
        {
          "internalType": "uint256",
          "name": "amount",
          "type": "uint256"
        }
      ],
      "name": "approve",
      "outputs": [
        {
          "internalType": "bool",
          "name": "",
          "type": "bool"
        }
      ],
      "stateMutability": "nonpayable",
      "type": "function"
    },
    {
      "inputs": [
        {
          "internalType": "address",
          "name": "account",
          "type": "address"
        }
      ],
      "name": "balanceOf",
      "outputs": [
        {
          "internalType": "uint256",
          "name": "",
          "type": "uint256"
        }
      ],
      "stateMutability": "view",
      "type": "function"
    },
    {
      "inputs": [
        {
          "internalType": "uint256",
          "name": "amount",
          "type": "uint256"
        },
        {
          "internalType": "uint256",
          "name": "orderID",
          "type": "uint256"
        }
      ],
      "name": "buyTokens",
      "outputs": [],
      "stateMutability": "nonpayable",
      "type": "function"
    },
    {
      "inputs": [],
      "name": "claimRewardsOnGoldfinch",
      "outputs": [],
      "stateMutability": "nonpayable",
      "type": "function"
    },
    {
      "inputs": [],
      "name": "decimals",
      "outputs": [
        {
          "internalType": "uint8",
          "name": "",
          "type": "uint8"
        }
      ],
      "stateMutability": "view",
      "type": "function"
    },
    {
      "inputs": [
        {
          "internalType": "address",
          "name": "spender",
          "type": "address"
        },
        {
          "internalType": "uint256",
          "name": "subtractedValue",
          "type": "uint256"
        }
      ],
      "name": "decreaseAllowance",
      "outputs": [
        {
          "internalType": "bool",
          "name": "",
          "type": "bool"
        }
      ],
      "stateMutability": "nonpayable",
      "type": "function"
    },
    {
      "inputs": [
        {
          "internalType": "uint256",
          "name": "tokenId",
          "type": "uint256"
        }
      ],
      "name": "depositERC721",
      "outputs": [],
      "stateMutability": "nonpayable",
      "type": "function"
    },
    {
      "inputs": [
        {
          "internalType": "address",
          "name": "spender",
          "type": "address"
        },
        {
          "internalType": "uint256",
          "name": "addedValue",
          "type": "uint256"
        }
      ],
      "name": "increaseAllowance",
      "outputs": [
        {
          "internalType": "bool",
          "name": "",
          "type": "bool"
        }
      ],
      "stateMutability": "nonpayable",
      "type": "function"
    },
    {
      "inputs": [],
      "name": "name",
      "outputs": [
        {
          "internalType": "string",
          "name": "",
          "type": "string"
        }
      ],
      "stateMutability": "view",
      "type": "function"
    },
    {
      "inputs": [
        {
          "internalType": "address",
          "name": "operator",
          "type": "address"
        },
        {
          "internalType": "address",
          "name": "from",
          "type": "address"
        },
        {
          "internalType": "uint256",
          "name": "tokenId",
          "type": "uint256"
        },
        {
          "internalType": "bytes",
          "name": "data",
          "type": "bytes"
        }
      ],
      "name": "onERC721Received",
      "outputs": [
        {
          "internalType": "bytes4",
          "name": "",
          "type": "bytes4"
        }
      ],
      "stateMutability": "nonpayable",
      "type": "function"
    },
    {
      "inputs": [],
      "name": "owner",
      "outputs": [
        {
          "internalType": "address",
          "name": "",
          "type": "address"
        }
      ],
      "stateMutability": "view",
      "type": "function"
    },
    {
      "inputs": [
        {
          "internalType": "uint256",
          "name": "",
          "type": "uint256"
        }
      ],
      "name": "ownerOfSellOrder",
      "outputs": [
        {
          "internalType": "address",
          "name": "",
          "type": "address"
        }
      ],
      "stateMutability": "view",
      "type": "function"
    },
    {
      "inputs": [],
      "name": "renounceOwnership",
      "outputs": [],
      "stateMutability": "nonpayable",
      "type": "function"
    },
    {
      "inputs": [
        {
          "internalType": "uint256",
          "name": "",
          "type": "uint256"
        }
      ],
      "name": "sellOrders",
      "outputs": [
        {
          "internalType": "address",
          "name": "seller",
          "type": "address"
        },
        {
          "internalType": "uint256",
          "name": "price",
          "type": "uint256"
        },
        {
          "internalType": "uint256",
          "name": "amount",
          "type": "uint256"
        }
      ],
      "stateMutability": "view",
      "type": "function"
    },
    {
      "inputs": [
        {
          "internalType": "uint256",
          "name": "amount",
          "type": "uint256"
        },
        {
          "internalType": "uint256",
          "name": "price",
          "type": "uint256"
        }
      ],
      "name": "sellTokens",
      "outputs": [],
      "stateMutability": "nonpayable",
      "type": "function"
    },
    {
      "inputs": [
        {
          "internalType": "address",
          "name": "_stakingContract",
          "type": "address"
        }
      ],
      "name": "setStakingContract",
      "outputs": [],
      "stateMutability": "nonpayable",
      "type": "function"
    },
    {
      "inputs": [],
      "name": "symbol",
      "outputs": [
        {
          "internalType": "string",
          "name": "",
          "type": "string"
        }
      ],
      "stateMutability": "view",
      "type": "function"
    },
    {
      "inputs": [],
      "name": "totalSupply",
      "outputs": [
        {
          "internalType": "uint256",
          "name": "",
          "type": "uint256"
        }
      ],
      "stateMutability": "view",
      "type": "function"
    },
    {
      "inputs": [
        {
          "internalType": "address",
          "name": "to",
          "type": "address"
        },
        {
          "internalType": "uint256",
          "name": "amount",
          "type": "uint256"
        }
      ],
      "name": "transfer",
      "outputs": [
        {
          "internalType": "bool",
          "name": "",
          "type": "bool"
        }
      ],
      "stateMutability": "nonpayable",
      "type": "function"
    },
    {
      "inputs": [
        {
          "internalType": "address",
          "name": "from",
          "type": "address"
        },
        {
          "internalType": "address",
          "name": "to",
          "type": "address"
        },
        {
          "internalType": "uint256",
          "name": "amount",
          "type": "uint256"
        }
      ],
      "name": "transferFrom",
      "outputs": [
        {
          "internalType": "bool",
          "name": "",
          "type": "bool"
        }
      ],
      "stateMutability": "nonpayable",
      "type": "function"
    },
    {
      "inputs": [
        {
          "internalType": "address",
          "name": "newOwner",
          "type": "address"
        }
      ],
      "name": "transferOwnership",
      "outputs": [],
      "stateMutability": "nonpayable",
      "type": "function"
    }
  ],
  "bytecode": {
    "object": "0x60806040523480156200001157600080fd5b5060405162001a0438038062001a04833981016040819052620000349162000165565b604051806040016040528060098152602001684c697175694465466960b81b815250604051806040016040528060038152602001622628a360e91b815250816003908162000083919062000254565b50600462000092828262000254565b505050620000af620000a9620000f260201b60201c565b620000f6565b600780546001600160a01b039485166001600160a01b0319918216179091556009805493851693821693909317909255600a805491909316911617905562000320565b3390565b600580546001600160a01b038381166001600160a01b0319831681179093556040519116919082907f8be0079c531659141344cd1fd0a4f28419497f9722a3daafe3b4186f6b6457e090600090a35050565b80516001600160a01b03811681146200016057600080fd5b919050565b6000806000606084860312156200017b57600080fd5b620001868462000148565b9250620001966020850162000148565b9150620001a66040850162000148565b90509250925092565b634e487b7160e01b600052604160045260246000fd5b600181811c90821680620001da57607f821691505b602082108103620001fb57634e487b7160e01b600052602260045260246000fd5b50919050565b601f8211156200024f57600081815260208120601f850160051c810160208610156200022a5750805b601f850160051c820191505b818110156200024b5782815560010162000236565b5050505b505050565b81516001600160401b03811115620002705762000270620001af565b6200028881620002818454620001c5565b8462000201565b602080601f831160018114620002c05760008415620002a75750858301515b600019600386901b1c1916600185901b1785556200024b565b600085815260208120601f198616915b82811015620002f157888601518255948401946001909101908401620002d0565b5085821015620003105787850151600019600388901b60f8161c191681555b5050505050600190811b01905550565b6116d480620003306000396000f3fe608060405234801561001057600080fd5b50600436106101425760003560e01c80637975ce28116100b8578063a9059cbb1161007c578063a9059cbb1461032b578063ba4da4871461033e578063d8a63f5914610346578063dd62ed3e14610359578063ed9772b61461036c578063f2fde38b1461037f57600080fd5b80637975ce28146102d95780638da5cb5b146102ec57806395d89b41146102fd5780639dd373b914610305578063a457c2d71461031857600080fd5b8063313ce5671161010a578063313ce567146101e557806339509351146101f45780634a8393f31461020757806370a0823114610265578063715018a61461028e578063786d79d71461029857600080fd5b806306fdde0314610147578063095ea7b314610165578063150b7a021461018857806318160ddd146101c057806323b872dd146101d2575b600080fd5b61014f610392565b60405161015c919061133a565b60405180910390f35b610178610173366004611389565b610424565b604051901515815260200161015c565b6101a76101963660046113b3565b630a85bd0160e11b95945050505050565b6040516001600160e01b0319909116815260200161015c565b6002545b60405190815260200161015c565b6101786101e036600461144e565b61043e565b6040516012815260200161015c565b610178610202366004611389565b610462565b61024061021536600461148a565b600b602052600090815260409020805460018201546002909201546001600160a01b03909116919083565b604080516001600160a01b03909416845260208401929092529082015260600161015c565b6101c46102733660046114a3565b6001600160a01b031660009081526020819052604090205490565b610296610484565b005b6102c16102a636600461148a565b600c602052600090815260409020546001600160a01b031681565b6040516001600160a01b03909116815260200161015c565b6102966102e73660046114c5565b610498565b6005546001600160a01b03166102c1565b61014f61058b565b6102966103133660046114a3565b61059a565b610178610326366004611389565b6105c4565b610178610339366004611389565b61063f565b61029661064d565b61029661035436600461148a565b610848565b6101c46103673660046114e7565b610941565b61029661037a3660046114c5565b61096c565b61029661038d3660046114a3565b6109de565b6060600380546103a19061151a565b80601f01602080910402602001604051908101604052809291908181526020018280546103cd9061151a565b801561041a5780601f106103ef5761010080835404028352916020019161041a565b820191906000526020600020905b8154815290600101906020018083116103fd57829003601f168201915b5050505050905090565b600033610432818585610a57565b60019150505b92915050565b60003361044c858285610b7b565b610457858585610bf5565b506001949350505050565b6000336104328185856104758383610941565b61047f919061156a565b610a57565b61048c610d99565b6104966000610df3565b565b6000818152600b602052604090206002015482106104fd5760405162461bcd60e51b815260206004820152601d60248201527f6e6f7420656e6f75676820746f6b656e73206c65667420746f2062757900000060448201526064015b60405180910390fd5b6000818152600b60205260408120600201805484929061051e90849061157d565b9091555061052f9050303384610e45565b610587336000838152600b6020526040902080546001909101546001600160a01b0390911690670de0b6b3a7640000906105699087611590565b61057391906115af565b6009546001600160a01b0316929190610ea8565b5050565b6060600480546103a19061151a565b6105a2610d99565b600680546001600160a01b0319166001600160a01b0392909216919091179055565b600033816105d28286610941565b9050838110156106325760405162461bcd60e51b815260206004820152602560248201527f45524332303a2064656372656173656420616c6c6f77616e63652062656c6f77604482015264207a65726f60d81b60648201526084016104f4565b6104578286868403610a57565b600033610432818585610bf5565b600a546040516370a0823160e01b81523060048201526000916001600160a01b0316906370a0823190602401602060405180830381865afa158015610696573d6000803e3d6000fd5b505050506040513d601f19601f820116820180604052508101906106ba91906115d1565b9050600760009054906101000a90046001600160a01b03166001600160a01b031663372500ab6040518163ffffffff1660e01b8152600401600060405180830381600087803b15801561070c57600080fd5b505af1158015610720573d6000803e3d6000fd5b5050600a546040516370a0823160e01b8152306004820152600093506001600160a01b0390911691506370a0823190602401602060405180830381865afa15801561076f573d6000803e3d6000fd5b505050506040513d601f19601f8201168201806040525081019061079391906115d1565b6006549091506107c3906001600160a01b03166107b0848461157d565b600a546001600160a01b03169190610ee0565b600654600a546001600160a01b039182169163b66503cf91166107e6858561157d565b6040516001600160e01b031960e085901b1681526001600160a01b0390921660048301526024820152604401600060405180830381600087803b15801561082c57600080fd5b505af1158015610840573d6000803e3d6000fd5b505050505050565b6007546040516374acd20960e01b8152600481018390526000916001600160a01b0316906374acd209906024016040805180830381865afa158015610891573d6000803e3d6000fd5b505050506040513d601f19601f820116820180604052508101906108b591906115ea565b516007549091506001600160a01b03166342842e0e336040516001600160e01b031960e084901b1681526001600160a01b03909116600482015230602482015260448101859052606401600060405180830381600087803b15801561091957600080fd5b505af115801561092d573d6000803e3d6000fd5b5050505061058761093b3390565b82610ff5565b6001600160a01b03918216600090815260016020908152604080832093909416825291909152205490565b6008805490600061097c83611647565b9091555050600880546000908152600b602090815260408083208054336001600160a01b031991821681178355600183018890556002830189905595548552600c9093529220805490911683179055906109d99030908186610ea8565b505050565b6109e6610d99565b6001600160a01b038116610a4b5760405162461bcd60e51b815260206004820152602660248201527f4f776e61626c653a206e6577206f776e657220697320746865207a65726f206160448201526564647265737360d01b60648201526084016104f4565b610a5481610df3565b50565b6001600160a01b038316610ab95760405162461bcd60e51b8152602060048201526024808201527f45524332303a20617070726f76652066726f6d20746865207a65726f206164646044820152637265737360e01b60648201526084016104f4565b6001600160a01b038216610b1a5760405162461bcd60e51b815260206004820152602260248201527f45524332303a20617070726f766520746f20746865207a65726f206164647265604482015261737360f01b60648201526084016104f4565b6001600160a01b0383811660008181526001602090815260408083209487168084529482529182902085905590518481527f8c5be1e5ebec7d5bd14f71427d1e84f3dd0314c0f7b2291e5b200ac8c7c3b925910160405180910390a3505050565b6000610b878484610941565b90506000198114610bef5781811015610be25760405162461bcd60e51b815260206004820152601d60248201527f45524332303a20696e73756666696369656e7420616c6c6f77616e636500000060448201526064016104f4565b610bef8484848403610a57565b50505050565b6001600160a01b038316610c595760405162461bcd60e51b815260206004820152602560248201527f45524332303a207472616e736665722066726f6d20746865207a65726f206164604482015264647265737360d81b60648201526084016104f4565b6001600160a01b038216610cbb5760405162461bcd60e51b815260206004820152602360248201527f45524332303a207472616e7366657220746f20746865207a65726f206164647260448201526265737360e81b60648201526084016104f4565b6001600160a01b03831660009081526020819052604090205481811015610d335760405162461bcd60e51b815260206004820152602660248201527f45524332303a207472616e7366657220616d6f756e7420657863656564732062604482015265616c616e636560d01b60648201526084016104f4565b6001600160a01b03848116600081815260208181526040808320878703905593871680835291849020805487019055925185815290927fddf252ad1be2c89b69c2b068fc378daa952ba7f163c4a11628f55a4df523b3ef910160405180910390a3610bef565b6005546001600160a01b031633146104965760405162461bcd60e51b815260206004820181905260248201527f4f776e61626c653a2063616c6c6572206973206e6f7420746865206f776e657260448201526064016104f4565b600580546001600160a01b038381166001600160a01b0319831681179093556040519116919082907f8be0079c531659141344cd1fd0a4f28419497f9722a3daafe3b4186f6b6457e090600090a35050565b6040516001600160a01b0383166024820152604481018290526109d990849063a9059cbb60e01b906064015b60408051601f198184030181529190526020810180516001600160e01b03166001600160e01b0319909316929092179091526110b4565b6040516001600160a01b0380851660248301528316604482015260648101829052610bef9085906323b872dd60e01b90608401610e71565b801580610f5a5750604051636eb1769f60e11b81523060048201526001600160a01b03838116602483015284169063dd62ed3e90604401602060405180830381865afa158015610f34573d6000803e3d6000fd5b505050506040513d601f19601f82011682018060405250810190610f5891906115d1565b155b610fc55760405162461bcd60e51b815260206004820152603660248201527f5361666545524332303a20617070726f76652066726f6d206e6f6e2d7a65726f60448201527520746f206e6f6e2d7a65726f20616c6c6f77616e636560501b60648201526084016104f4565b6040516001600160a01b0383166024820152604481018290526109d990849063095ea7b360e01b90606401610e71565b6001600160a01b03821661104b5760405162461bcd60e51b815260206004820152601f60248201527f45524332303a206d696e7420746f20746865207a65726f20616464726573730060448201526064016104f4565b806002600082825461105d919061156a565b90915550506001600160a01b038216600081815260208181526040808320805486019055518481527fddf252ad1be2c89b69c2b068fc378daa952ba7f163c4a11628f55a4df523b3ef910160405180910390a35050565b6000611109826040518060400160405280602081526020017f5361666545524332303a206c6f772d6c6576656c2063616c6c206661696c6564815250856001600160a01b03166111869092919063ffffffff16565b8051909150156109d957808060200190518101906111279190611660565b6109d95760405162461bcd60e51b815260206004820152602a60248201527f5361666545524332303a204552433230206f7065726174696f6e20646964206e6044820152691bdd081cdd58d8d9595960b21b60648201526084016104f4565b6060611195848460008561119d565b949350505050565b6060824710156111fe5760405162461bcd60e51b815260206004820152602660248201527f416464726573733a20696e73756666696369656e742062616c616e636520666f6044820152651c8818d85b1b60d21b60648201526084016104f4565b600080866001600160a01b0316858760405161121a9190611682565b60006040518083038185875af1925050503d8060008114611257576040519150601f19603f3d011682016040523d82523d6000602084013e61125c565b606091505b509150915061126d87838387611278565b979650505050505050565b606083156112e75782516000036112e0576001600160a01b0385163b6112e05760405162461bcd60e51b815260206004820152601d60248201527f416464726573733a2063616c6c20746f206e6f6e2d636f6e747261637400000060448201526064016104f4565b5081611195565b61119583838151156112fc5781518083602001fd5b8060405162461bcd60e51b81526004016104f4919061133a565b60005b83811015611331578181015183820152602001611319565b50506000910152565b6020815260008251806020840152611359816040850160208701611316565b601f01601f19169190910160400192915050565b80356001600160a01b038116811461138457600080fd5b919050565b6000806040838503121561139c57600080fd5b6113a58361136d565b946020939093013593505050565b6000806000806000608086880312156113cb57600080fd5b6113d48661136d565b94506113e26020870161136d565b935060408601359250606086013567ffffffffffffffff8082111561140657600080fd5b818801915088601f83011261141a57600080fd5b81358181111561142957600080fd5b89602082850101111561143b57600080fd5b9699959850939650602001949392505050565b60008060006060848603121561146357600080fd5b61146c8461136d565b925061147a6020850161136d565b9150604084013590509250925092565b60006020828403121561149c57600080fd5b5035919050565b6000602082840312156114b557600080fd5b6114be8261136d565b9392505050565b600080604083850312156114d857600080fd5b50508035926020909101359150565b600080604083850312156114fa57600080fd5b6115038361136d565b91506115116020840161136d565b90509250929050565b600181811c9082168061152e57607f821691505b60208210810361154e57634e487b7160e01b600052602260045260246000fd5b50919050565b634e487b7160e01b600052601160045260246000fd5b8082018082111561043857610438611554565b8181038181111561043857610438611554565b60008160001904831182151516156115aa576115aa611554565b500290565b6000826115cc57634e487b7160e01b600052601260045260246000fd5b500490565b6000602082840312156115e357600080fd5b5051919050565b6000604082840312156115fc57600080fd5b6040516040810181811067ffffffffffffffff8211171561162d57634e487b7160e01b600052604160045260246000fd5b604052825181526020928301519281019290925250919050565b60006001820161165957611659611554565b5060010190565b60006020828403121561167257600080fd5b815180151581146114be57600080fd5b60008251611694818460208701611316565b919091019291505056fea264697066735822122057bd4e96142c394b3ba3c1843766f1e256fca062d807d27a9fca029b0eafce2a64736f6c63430008100033",
    "linkReferences": {}
  },
  "methodIdentifiers": {
    "allowance(address,address)": "dd62ed3e",
    "approve(address,uint256)": "095ea7b3",
    "balanceOf(address)": "70a08231",
    "buyTokens(uint256,uint256)": "7975ce28",
    "claimRewardsOnGoldfinch()": "ba4da487",
    "decimals()": "313ce567",
    "decreaseAllowance(address,uint256)": "a457c2d7",
    "depositERC721(uint256)": "d8a63f59",
    "increaseAllowance(address,uint256)": "39509351",
    "name()": "06fdde03",
    "onERC721Received(address,address,uint256,bytes)": "150b7a02",
    "owner()": "8da5cb5b",
    "ownerOfSellOrder(uint256)": "786d79d7",
    "renounceOwnership()": "715018a6",
    "sellOrders(uint256)": "4a8393f3",
    "sellTokens(uint256,uint256)": "ed9772b6",
    "setStakingContract(address)": "9dd373b9",
    "symbol()": "95d89b41",
    "totalSupply()": "18160ddd",
    "transfer(address,uint256)": "a9059cbb",
    "transferFrom(address,address,uint256)": "23b872dd",
    "transferOwnership(address)": "f2fde38b"
  },
  "id": 2
}