{
  "abi": [
    {
      "inputs": [
        {
          "internalType": "address",
          "name": "_stablecoin",
          "type": "address"
        },
        {
          "internalType": "address",
          "name": "_rewards",
          "type": "address"
        }
      ],
      "stateMutability": "nonpayable",
      "type": "constructor"
    },
    {
      "anonymous": false,
      "inputs": [
        {
          "indexed": true,
          "internalType": "address",
          "name": "owner",
          "type": "address"
        },
        {
          "indexed": true,
          "internalType": "address",
          "name": "approved",
          "type": "address"
        },
        {
          "indexed": true,
          "internalType": "uint256",
          "name": "tokenId",
          "type": "uint256"
        }
      ],
      "name": "Approval",
      "type": "event"
    },
    {
      "anonymous": false,
      "inputs": [
        {
          "indexed": true,
          "internalType": "address",
          "name": "owner",
          "type": "address"
        },
        {
          "indexed": true,
          "internalType": "address",
          "name": "operator",
          "type": "address"
        },
        {
          "indexed": false,
          "internalType": "bool",
          "name": "approved",
          "type": "bool"
        }
      ],
      "name": "ApprovalForAll",
      "type": "event"
    },
    {
      "anonymous": false,
      "inputs": [
        {
          "indexed": true,
          "internalType": "address",
          "name": "from",
          "type": "address"
        },
        {
          "indexed": true,
          "internalType": "address",
          "name": "to",
          "type": "address"
        },
        {
          "indexed": true,
          "internalType": "uint256",
          "name": "tokenId",
          "type": "uint256"
        }
      ],
      "name": "Transfer",
      "type": "event"
    },
    {
      "inputs": [
        {
          "internalType": "address",
          "name": "to",
          "type": "address"
        },
        {
          "internalType": "uint256",
          "name": "tokenId",
          "type": "uint256"
        }
      ],
      "name": "approve",
      "outputs": [],
      "stateMutability": "nonpayable",
      "type": "function"
    },
    {
      "inputs": [
        {
          "internalType": "address",
          "name": "owner",
          "type": "address"
        }
      ],
      "name": "balanceOf",
      "outputs": [
        {
          "internalType": "uint256",
          "name": "",
          "type": "uint256"
        }
      ],
      "stateMutability": "view",
      "type": "function"
    },
    {
      "inputs": [],
      "name": "claimRewards",
      "outputs": [],
      "stateMutability": "nonpayable",
      "type": "function"
    },
    {
      "inputs": [
        {
          "internalType": "uint256",
          "name": "amount",
          "type": "uint256"
        }
      ],
      "name": "depositFunds",
      "outputs": [],
      "stateMutability": "nonpayable",
      "type": "function"
    },
    {
      "inputs": [
        {
          "internalType": "uint256",
          "name": "tokenId",
          "type": "uint256"
        }
      ],
      "name": "getApproved",
      "outputs": [
        {
          "internalType": "address",
          "name": "",
          "type": "address"
        }
      ],
      "stateMutability": "view",
      "type": "function"
    },
    {
      "inputs": [
        {
          "internalType": "address",
          "name": "owner",
          "type": "address"
        },
        {
          "internalType": "address",
          "name": "operator",
          "type": "address"
        }
      ],
      "name": "isApprovedForAll",
      "outputs": [
        {
          "internalType": "bool",
          "name": "",
          "type": "bool"
        }
      ],
      "stateMutability": "view",
      "type": "function"
    },
    {
      "inputs": [],
      "name": "name",
      "outputs": [
        {
          "internalType": "string",
          "name": "",
          "type": "string"
        }
      ],
      "stateMutability": "view",
      "type": "function"
    },
    {
      "inputs": [
        {
          "internalType": "uint256",
          "name": "tokenId",
          "type": "uint256"
        }
      ],
      "name": "ownerOf",
      "outputs": [
        {
          "internalType": "address",
          "name": "",
          "type": "address"
        }
      ],
      "stateMutability": "view",
      "type": "function"
    },
    {
      "inputs": [
        {
          "internalType": "address",
          "name": "from",
          "type": "address"
        },
        {
          "internalType": "address",
          "name": "to",
          "type": "address"
        },
        {
          "internalType": "uint256",
          "name": "tokenId",
          "type": "uint256"
        }
      ],
      "name": "safeTransferFrom",
      "outputs": [],
      "stateMutability": "nonpayable",
      "type": "function"
    },
    {
      "inputs": [
        {
          "internalType": "address",
          "name": "from",
          "type": "address"
        },
        {
          "internalType": "address",
          "name": "to",
          "type": "address"
        },
        {
          "internalType": "uint256",
          "name": "tokenId",
          "type": "uint256"
        },
        {
          "internalType": "bytes",
          "name": "data",
          "type": "bytes"
        }
      ],
      "name": "safeTransferFrom",
      "outputs": [],
      "stateMutability": "nonpayable",
      "type": "function"
    },
    {
      "inputs": [
        {
          "internalType": "address",
          "name": "operator",
          "type": "address"
        },
        {
          "internalType": "bool",
          "name": "approved",
          "type": "bool"
        }
      ],
      "name": "setApprovalForAll",
      "outputs": [],
      "stateMutability": "nonpayable",
      "type": "function"
    },
    {
      "inputs": [
        {
          "internalType": "bytes4",
          "name": "interfaceId",
          "type": "bytes4"
        }
      ],
      "name": "supportsInterface",
      "outputs": [
        {
          "internalType": "bool",
          "name": "",
          "type": "bool"
        }
      ],
      "stateMutability": "view",
      "type": "function"
    },
    {
      "inputs": [],
      "name": "symbol",
      "outputs": [
        {
          "internalType": "string",
          "name": "",
          "type": "string"
        }
      ],
      "stateMutability": "view",
      "type": "function"
    },
    {
      "inputs": [
        {
          "internalType": "uint256",
          "name": "",
          "type": "uint256"
        }
      ],
      "name": "tokenIdToPosition",
      "outputs": [
        {
          "internalType": "uint256",
          "name": "amount",
          "type": "uint256"
        },
        {
          "internalType": "uint256",
          "name": "timeStamp",
          "type": "uint256"
        }
      ],
      "stateMutability": "view",
      "type": "function"
    },
    {
      "inputs": [
        {
          "internalType": "uint256",
          "name": "tokenId",
          "type": "uint256"
        }
      ],
      "name": "tokenURI",
      "outputs": [
        {
          "internalType": "string",
          "name": "",
          "type": "string"
        }
      ],
      "stateMutability": "view",
      "type": "function"
    },
    {
      "inputs": [
        {
          "internalType": "address",
          "name": "from",
          "type": "address"
        },
        {
          "internalType": "address",
          "name": "to",
          "type": "address"
        },
        {
          "internalType": "uint256",
          "name": "tokenId",
          "type": "uint256"
        }
      ],
      "name": "transferFrom",
      "outputs": [],
      "stateMutability": "nonpayable",
      "type": "function"
    }
  ],
  "bytecode": {
    "object": "0x60806040523480156200001157600080fd5b5060405162001ae538038062001ae58339810160408190526200003491620000d4565b60408051808201825260038082526213919560ea1b60208084018290528451808601909552918452908301529060006200006f8382620001b1565b5060016200007e8282620001b1565b5050600680546001600160a01b039485166001600160a01b0319918216179091556007805493909416921691909117909155506200027d565b80516001600160a01b0381168114620000cf57600080fd5b919050565b60008060408385031215620000e857600080fd5b620000f383620000b7565b91506200010360208401620000b7565b90509250929050565b634e487b7160e01b600052604160045260246000fd5b600181811c908216806200013757607f821691505b6020821081036200015857634e487b7160e01b600052602260045260246000fd5b50919050565b601f821115620001ac57600081815260208120601f850160051c81016020861015620001875750805b601f850160051c820191505b81811015620001a85782815560010162000193565b5050505b505050565b81516001600160401b03811115620001cd57620001cd6200010c565b620001e581620001de845462000122565b846200015e565b602080601f8311600181146200021d5760008415620002045750858301515b600019600386901b1c1916600185901b178555620001a8565b600085815260208120601f198616915b828110156200024e578886015182559484019460019091019084016200022d565b50858210156200026d5787850151600019600388901b60f8161c191681555b5050505050600190811b01905550565b611858806200028d6000396000f3fe608060405234801561001057600080fd5b50600436106101005760003560e01c80636352211e11610097578063a22cb46511610066578063a22cb4651461023b578063b88d4fde1461024e578063c87b56dd14610261578063e985e9c51461027457600080fd5b80636352211e146101c357806370a08231146101d657806374acd209146101f757806395d89b411461023357600080fd5b806323b872dd116100d357806323b872dd14610182578063372500ab146101955780633b76594d1461019d57806342842e0e146101b057600080fd5b806301ffc9a71461010557806306fdde031461012d578063081812fc14610142578063095ea7b31461016d575b600080fd5b610118610113366004611334565b610287565b60405190151581526020015b60405180910390f35b6101356102d9565b60405161012491906113a1565b6101556101503660046113b4565b61036b565b6040516001600160a01b039091168152602001610124565b61018061017b3660046113e9565b610392565b005b610180610190366004611413565b6104ac565b6101806104dd565b6101806101ab3660046113b4565b610562565b6101806101be366004611413565b6105b9565b6101556101d13660046113b4565b6105d4565b6101e96101e436600461144f565b610634565b604051908152602001610124565b61021e6102053660046113b4565b6009602052600090815260409020805460019091015482565b60408051928352602083019190915201610124565b6101356106ba565b610180610249366004611478565b6106c9565b61018061025c3660046114c5565b6106d4565b61013561026f3660046113b4565b61070c565b6101186102823660046115a1565b610780565b60006001600160e01b031982166380ac58cd60e01b14806102b857506001600160e01b03198216635b5e139f60e01b145b806102d357506301ffc9a760e01b6001600160e01b03198316145b92915050565b6060600080546102e8906115d4565b80601f0160208091040260200160405190810160405280929190818152602001828054610314906115d4565b80156103615780601f1061033657610100808354040283529160200191610361565b820191906000526020600020905b81548152906001019060200180831161034457829003601f168201915b5050505050905090565b6000610376826107ae565b506000908152600460205260409020546001600160a01b031690565b600061039d826105d4565b9050806001600160a01b0316836001600160a01b03160361040f5760405162461bcd60e51b815260206004820152602160248201527f4552433732313a20617070726f76616c20746f2063757272656e74206f776e656044820152603960f91b60648201526084015b60405180910390fd5b336001600160a01b038216148061042b575061042b8133610780565b61049d5760405162461bcd60e51b815260206004820152603d60248201527f4552433732313a20617070726f76652063616c6c6572206973206e6f7420746f60448201527f6b656e206f776e6572206f7220617070726f76656420666f7220616c6c0000006064820152608401610406565b6104a78383610810565b505050565b6104b6338261087e565b6104d25760405162461bcd60e51b81526004016104069061160e565b6104a78383836108dd565b610560336007546040516370a0823160e01b81523060048201526001600160a01b03909116906370a0823190602401602060405180830381865afa158015610529573d6000803e3d6000fd5b505050506040513d601f19601f8201168201806040525081019061054d919061165b565b6007546001600160a01b03169190610a4e565b565b600880549060006105728361168a565b909155505060085460009081526009602052604090208181554260018201556105a9336006546001600160a01b0316903085610ab1565b6105b533600854610ae9565b5050565b6104a7838383604051806020016040528060008152506106d4565b6000818152600260205260408120546001600160a01b0316806102d35760405162461bcd60e51b8152602060048201526018602482015277115490cdcc8c4e881a5b9d985b1a59081d1bdad95b88125160421b6044820152606401610406565b60006001600160a01b03821661069e5760405162461bcd60e51b815260206004820152602960248201527f4552433732313a2061646472657373207a65726f206973206e6f7420612076616044820152683634b21037bbb732b960b91b6064820152608401610406565b506001600160a01b031660009081526003602052604090205490565b6060600180546102e8906115d4565b6105b5338383610b03565b6106de338361087e565b6106fa5760405162461bcd60e51b81526004016104069061160e565b61070684848484610bd1565b50505050565b6060610717826107ae565b600061072e60408051602081019091526000815290565b9050600081511161074e5760405180602001604052806000815250610779565b8061075884610c04565b6040516020016107699291906116a3565b6040516020818303038152906040525b9392505050565b6001600160a01b03918216600090815260056020908152604080832093909416825291909152205460ff1690565b6000818152600260205260409020546001600160a01b031661080d5760405162461bcd60e51b8152602060048201526018602482015277115490cdcc8c4e881a5b9d985b1a59081d1bdad95b88125160421b6044820152606401610406565b50565b600081815260046020526040902080546001600160a01b0319166001600160a01b0384169081179091558190610845826105d4565b6001600160a01b03167f8c5be1e5ebec7d5bd14f71427d1e84f3dd0314c0f7b2291e5b200ac8c7c3b92560405160405180910390a45050565b60008061088a836105d4565b9050806001600160a01b0316846001600160a01b031614806108b157506108b18185610780565b806108d55750836001600160a01b03166108ca8461036b565b6001600160a01b0316145b949350505050565b826001600160a01b03166108f0826105d4565b6001600160a01b0316146109165760405162461bcd60e51b8152600401610406906116d2565b6001600160a01b0382166109785760405162461bcd60e51b8152602060048201526024808201527f4552433732313a207472616e7366657220746f20746865207a65726f206164646044820152637265737360e01b6064820152608401610406565b6109858383836001610c97565b826001600160a01b0316610998826105d4565b6001600160a01b0316146109be5760405162461bcd60e51b8152600401610406906116d2565b600081815260046020908152604080832080546001600160a01b03199081169091556001600160a01b0387811680865260038552838620805460001901905590871680865283862080546001019055868652600290945282852080549092168417909155905184937fddf252ad1be2c89b69c2b068fc378daa952ba7f163c4a11628f55a4df523b3ef91a4505050565b6040516001600160a01b0383166024820152604481018290526104a790849063a9059cbb60e01b906064015b60408051601f198184030181529190526020810180516001600160e01b03166001600160e01b031990931692909217909152610d1f565b6040516001600160a01b03808516602483015283166044820152606481018290526107069085906323b872dd60e01b90608401610a7a565b6105b5828260405180602001604052806000815250610df1565b816001600160a01b0316836001600160a01b031603610b645760405162461bcd60e51b815260206004820152601960248201527f4552433732313a20617070726f766520746f2063616c6c6572000000000000006044820152606401610406565b6001600160a01b03838116600081815260056020908152604080832094871680845294825291829020805460ff191686151590811790915591519182527f17307eab39ab6107e8899845ad3d59bd9653f200f220920489ca2b5937696c31910160405180910390a3505050565b610bdc8484846108dd565b610be884848484610e24565b6107065760405162461bcd60e51b815260040161040690611717565b60606000610c1183610f25565b600101905060008167ffffffffffffffff811115610c3157610c316114af565b6040519080825280601f01601f191660200182016040528015610c5b576020820181803683370190505b5090508181016020015b600019016f181899199a1a9b1b9c1cb0b131b232b360811b600a86061a8153600a8504945084610c6557509392505050565b6001811115610706576001600160a01b03841615610cdd576001600160a01b03841660009081526003602052604081208054839290610cd7908490611769565b90915550505b6001600160a01b03831615610706576001600160a01b03831660009081526003602052604081208054839290610d1490849061177c565b909155505050505050565b6000610d74826040518060400160405280602081526020017f5361666545524332303a206c6f772d6c6576656c2063616c6c206661696c6564815250856001600160a01b0316610ffd9092919063ffffffff16565b8051909150156104a75780806020019051810190610d92919061178f565b6104a75760405162461bcd60e51b815260206004820152602a60248201527f5361666545524332303a204552433230206f7065726174696f6e20646964206e6044820152691bdd081cdd58d8d9595960b21b6064820152608401610406565b610dfb838361100c565b610e086000848484610e24565b6104a75760405162461bcd60e51b815260040161040690611717565b60006001600160a01b0384163b15610f1a57604051630a85bd0160e11b81526001600160a01b0385169063150b7a0290610e689033908990889088906004016117ac565b6020604051808303816000875af1925050508015610ea3575060408051601f3d908101601f19168201909252610ea0918101906117e9565b60015b610f00573d808015610ed1576040519150601f19603f3d011682016040523d82523d6000602084013e610ed6565b606091505b508051600003610ef85760405162461bcd60e51b815260040161040690611717565b805181602001fd5b6001600160e01b031916630a85bd0160e11b1490506108d5565b506001949350505050565b60008072184f03e93ff9f4daa797ed6e38ed64bf6a1f0160401b8310610f645772184f03e93ff9f4daa797ed6e38ed64bf6a1f0160401b830492506040015b6d04ee2d6d415b85acef81000000008310610f90576d04ee2d6d415b85acef8100000000830492506020015b662386f26fc100008310610fae57662386f26fc10000830492506010015b6305f5e1008310610fc6576305f5e100830492506008015b6127108310610fda57612710830492506004015b60648310610fec576064830492506002015b600a83106102d35760010192915050565b60606108d584846000856111a5565b6001600160a01b0382166110625760405162461bcd60e51b815260206004820181905260248201527f4552433732313a206d696e7420746f20746865207a65726f20616464726573736044820152606401610406565b6000818152600260205260409020546001600160a01b0316156110c75760405162461bcd60e51b815260206004820152601c60248201527f4552433732313a20746f6b656e20616c7265616479206d696e746564000000006044820152606401610406565b6110d5600083836001610c97565b6000818152600260205260409020546001600160a01b03161561113a5760405162461bcd60e51b815260206004820152601c60248201527f4552433732313a20746f6b656e20616c7265616479206d696e746564000000006044820152606401610406565b6001600160a01b038216600081815260036020908152604080832080546001019055848352600290915280822080546001600160a01b0319168417905551839291907fddf252ad1be2c89b69c2b068fc378daa952ba7f163c4a11628f55a4df523b3ef908290a45050565b6060824710156112065760405162461bcd60e51b815260206004820152602660248201527f416464726573733a20696e73756666696369656e742062616c616e636520666f6044820152651c8818d85b1b60d21b6064820152608401610406565b600080866001600160a01b031685876040516112229190611806565b60006040518083038185875af1925050503d806000811461125f576040519150601f19603f3d011682016040523d82523d6000602084013e611264565b606091505b509150915061127587838387611280565b979650505050505050565b606083156112ef5782516000036112e8576001600160a01b0385163b6112e85760405162461bcd60e51b815260206004820152601d60248201527f416464726573733a2063616c6c20746f206e6f6e2d636f6e74726163740000006044820152606401610406565b50816108d5565b6108d583838151156113045781518083602001fd5b8060405162461bcd60e51b815260040161040691906113a1565b6001600160e01b03198116811461080d57600080fd5b60006020828403121561134657600080fd5b81356107798161131e565b60005b8381101561136c578181015183820152602001611354565b50506000910152565b6000815180845261138d816020860160208601611351565b601f01601f19169290920160200192915050565b6020815260006107796020830184611375565b6000602082840312156113c657600080fd5b5035919050565b80356001600160a01b03811681146113e457600080fd5b919050565b600080604083850312156113fc57600080fd5b611405836113cd565b946020939093013593505050565b60008060006060848603121561142857600080fd5b611431846113cd565b925061143f602085016113cd565b9150604084013590509250925092565b60006020828403121561146157600080fd5b610779826113cd565b801515811461080d57600080fd5b6000806040838503121561148b57600080fd5b611494836113cd565b915060208301356114a48161146a565b809150509250929050565b634e487b7160e01b600052604160045260246000fd5b600080600080608085870312156114db57600080fd5b6114e4856113cd565b93506114f2602086016113cd565b925060408501359150606085013567ffffffffffffffff8082111561151657600080fd5b818701915087601f83011261152a57600080fd5b81358181111561153c5761153c6114af565b604051601f8201601f19908116603f01168101908382118183101715611564576115646114af565b816040528281528a602084870101111561157d57600080fd5b82602086016020830137600060208483010152809550505050505092959194509250565b600080604083850312156115b457600080fd5b6115bd836113cd565b91506115cb602084016113cd565b90509250929050565b600181811c908216806115e857607f821691505b60208210810361160857634e487b7160e01b600052602260045260246000fd5b50919050565b6020808252602d908201527f4552433732313a2063616c6c6572206973206e6f7420746f6b656e206f776e6560408201526c1c881bdc88185c1c1c9bdd9959609a1b606082015260800190565b60006020828403121561166d57600080fd5b5051919050565b634e487b7160e01b600052601160045260246000fd5b60006001820161169c5761169c611674565b5060010190565b600083516116b5818460208801611351565b8351908301906116c9818360208801611351565b01949350505050565b60208082526025908201527f4552433732313a207472616e736665722066726f6d20696e636f72726563742060408201526437bbb732b960d91b606082015260800190565b60208082526032908201527f4552433732313a207472616e7366657220746f206e6f6e20455243373231526560408201527131b2b4bb32b91034b6b83632b6b2b73a32b960711b606082015260800190565b818103818111156102d3576102d3611674565b808201808211156102d3576102d3611674565b6000602082840312156117a157600080fd5b81516107798161146a565b6001600160a01b03858116825284166020820152604081018390526080606082018190526000906117df90830184611375565b9695505050505050565b6000602082840312156117fb57600080fd5b81516107798161131e565b60008251611818818460208701611351565b919091019291505056fea26469706673582212208416928e945fbbfd9499336fd52fb00933f3cde798116a2a0e69acec0dcabdca64736f6c63430008100033",
    "linkReferences": {}
  },
  "methodIdentifiers": {
    "approve(address,uint256)": "095ea7b3",
    "balanceOf(address)": "70a08231",
    "claimRewards()": "372500ab",
    "depositFunds(uint256)": "3b76594d",
    "getApproved(uint256)": "081812fc",
    "isApprovedForAll(address,address)": "e985e9c5",
    "name()": "06fdde03",
    "ownerOf(uint256)": "6352211e",
    "safeTransferFrom(address,address,uint256)": "42842e0e",
    "safeTransferFrom(address,address,uint256,bytes)": "b88d4fde",
    "setApprovalForAll(address,bool)": "a22cb465",
    "supportsInterface(bytes4)": "01ffc9a7",
    "symbol()": "95d89b41",
    "tokenIdToPosition(uint256)": "74acd209",
    "tokenURI(uint256)": "c87b56dd",
    "transferFrom(address,address,uint256)": "23b872dd"
  },
  "id": 0
}